:1000000000308A0018280000233084008313000881
:10001000031917280630F800F701F70B0D28F80B25
:100020000C287B30F700F70B1328800B0A280800F8
:10003000840183131F308305A00183161F149F14AE
:100040001F159F1107309C00003088008801FF3089
:1000500083128800A100A0012008073C031C40284F
:100060000310A10D83168801831221088800023035
:10007000A2009630A3000420A20B3928A00A2C2845
:10008000A0012008073C031C57280310210D013E46
:10009000A100831688018312210888000230A20083
:1000A0009630A3000420A20B5028A00A41282B2838
:0200B0006300EB
:02400E003A3F37
:00000001FF
;PIC16F877A
;CRC=E16B  CREATED="05-Jul-20 19:34"
