:1000000000308A0018280000213084008313000883
:10001000031917280630F800F701F70B0D28F80B25
:100020000C287B30F700F70B1328800B0A280800F8
:10003000840183131F30830583161F149F141F151B
:100040009F1107309C00003088008801FF30831228
:1000500088008316081083120810831688108312F4
:100060008810C830A10004208316081083120814D9
:100070008316881083128814C830A1000420292810
:0200800063001B
:02400E003A3F37
:00000001FF
;PIC16F877A
;CRC=6DAD  CREATED="05-Jul-20 19:09"
